{
  "contractName": "AnchorContract",
  "abi": [
    {
      "inputs": [],
      "payable": false,
      "stateMutability": "nonpayable",
      "type": "constructor"
    },
    {
      "anonymous": false,
      "inputs": [
        {
          "indexed": true,
          "internalType": "uint256",
          "name": "statusCode",
          "type": "uint256"
        }
      ],
      "name": "InvokeStatus",
      "type": "event"
    },
    {
      "constant": false,
      "inputs": [
        {
          "internalType": "string",
          "name": "anchorID",
          "type": "string"
        },
        {
          "internalType": "string",
          "name": "keySSIType",
          "type": "string"
        },
        {
          "internalType": "bytes32",
          "name": "controlString",
          "type": "bytes32"
        },
        {
          "internalType": "string",
          "name": "vn",
          "type": "string"
        },
        {
          "internalType": "string",
          "name": "newHashLinkSSI",
          "type": "string"
        },
        {
          "internalType": "string",
          "name": "ZKPValue",
          "type": "string"
        },
        {
          "internalType": "string",
          "name": "lastHashLinkSSI",
          "type": "string"
        },
        {
          "internalType": "bytes",
          "name": "signature",
          "type": "bytes"
        },
        {
          "internalType": "bytes",
          "name": "publicKey",
          "type": "bytes"
        }
      ],
      "name": "addAnchor",
      "outputs": [],
      "payable": false,
      "stateMutability": "nonpayable",
      "type": "function"
    },
    {
      "constant": true,
      "inputs": [
        {
          "internalType": "string",
          "name": "anchor",
          "type": "string"
        }
      ],
      "name": "getAnchorVersions",
      "outputs": [
        {
          "components": [
            {
              "components": [
                {
                  "internalType": "string",
                  "name": "newHashLinkSSI",
                  "type": "string"
                },
                {
                  "internalType": "string",
                  "name": "lastHashLinkSSI",
                  "type": "string"
                }
              ],
              "internalType": "struct AnchorContract.AnchorHash",
              "name": "hash",
              "type": "tuple"
            },
            {
              "internalType": "string",
              "name": "ZKPValue",
              "type": "string"
            }
          ],
          "internalType": "struct AnchorContract.AnchorValue[]",
          "name": "",
          "type": "tuple[]"
        }
      ],
      "payable": false,
      "stateMutability": "view",
      "type": "function"
    },
    {
      "constant": true,
      "inputs": [
        {
          "internalType": "bytes32",
          "name": "data",
          "type": "bytes32"
        }
      ],
      "name": "isEmptyBytes32",
      "outputs": [
        {
          "internalType": "bool",
          "name": "",
          "type": "bool"
        }
      ],
      "payable": false,
      "stateMutability": "pure",
      "type": "function"
    }
  ],
  "bytecode": "0x608060405234801561001057600080fd5b50611992806100206000396000f3fe608060405234801561001057600080fd5b50600436106100415760003560e01c80634222fd2314610046578063ab46b02414610076578063cdab80e3146100a6575b600080fd5b610060600480360361005b91908101906111a4565b6100c2565b60405161006d919061173d565b60405180910390f35b610090600480360361008b91908101906111f6565b610103565b60405161009d919061171b565b60405180910390f35b6100c060048036036100bb9190810190611237565b61049d565b005b60008060f81b826000602081106100d557fe5b1a60f81b7effffffffffffffffffffffffffffffffffffffffffffffffffffffffffffff1916149050919050565b606060006001836040516101179190611695565b908152602001604051809103902080549050141561017257600060405190808252806020026020018201604052801561016a57816020015b610157610fb9565b81526020019060019003908161014f5790505b509050610498565b60606001836040516101849190611695565b90815260200160405180910390208054806020026020016040519081016040528092919081815260200182805480156101dc57602002820191906000526020600020905b8154815260200190600101908083116101c8575b505050505090506060815160405190808252806020026020018201604052801561022057816020015b61020d610fb9565b8152602001906001900390816102055790505b50905060008090505b82518110156104915761046d600084838151811061024357fe5b60200260200101518154811061025557fe5b906000526020600020906003020160405180604001604052908160008201604051806040016040529081600082018054600181600116156101000203166002900480601f0160208091040260200160405190810160405280929190818152602001828054600181600116156101000203166002900480156103175780601f106102ec57610100808354040283529160200191610317565b820191906000526020600020905b8154815290600101906020018083116102fa57829003601f168201915b50505050508152602001600182018054600181600116156101000203166002900480601f0160208091040260200160405190810160405280929190818152602001828054600181600116156101000203166002900480156103b95780601f1061038e576101008083540402835291602001916103b9565b820191906000526020600020905b81548152906001019060200180831161039c57829003601f168201915b5050505050815250508152602001600282018054600181600116156101000203166002900480601f01602080910402602001604051908101604052809291908181526020018280546001816001161561010002031660029004801561045f5780601f106104345761010080835404028352916020019161045f565b820191906000526020600020905b81548152906001019060200180831161044257829003601f168201915b5050505050815250506106b6565b82828151811061047957fe5b60200260200101819052508080600101915050610229565b5080925050505b919050565b6104a6896106e4565b156104de5760657f4946ccdaf82fd5a93c40e96bfc3e4486f2b1d95879aecd4b186cd3e2adb3f4b960405160405180910390a26106ab565b60006104eb8a858861077c565b9050600081141561052a5760647f4946ccdaf82fd5a93c40e96bfc3e4486f2b1d95879aecd4b186cd3e2adb3f4b960405160405180910390a2506106ab565b7fffffffffffffffffffffffffffffffffffffffffffffffffffffffffffffffff8114156105c45761055b886100c2565b156105a05761056c8a8787876109b7565b60c87f4946ccdaf82fd5a93c40e96bfc3e4486f2b1d95879aecd4b186cd3e2adb3f4b960405160405180910390a2506106ab565b8760028b6040516105b19190611695565b9081526020016040518091039020819055505b7fffffffffffffffffffffffffffffffffffffffffffffffffffffffffffffffff6105ef838c610adf565b14156106295760667f4946ccdaf82fd5a93c40e96bfc3e4486f2b1d95879aecd4b186cd3e2adb3f4b960405160405180910390a2506106ab565b6106378a8787878787610b47565b61066f5760677f4946ccdaf82fd5a93c40e96bfc3e4486f2b1d95879aecd4b186cd3e2adb3f4b960405160405180910390a2506106ab565b61067b8a878787610b98565b60c87f4946ccdaf82fd5a93c40e96bfc3e4486f2b1d95879aecd4b186cd3e2adb3f4b960405160405180910390a2505b505050505050505050565b6106be610fd9565b6106dd8260000151600001518360000151602001518460200151610c9d565b9050919050565b6000806001836040516106f79190611695565b908152602001604051809103902080549050146107725760038260405161071e9190611695565b90815260200160405180910390205460018360405161073d9190611695565b908152602001604051809103902060008154811061075757fe5b906000526020600020015414156107715760019050610777565b5b600090505b919050565b60008060018560405161078f9190611695565b90815260200160405180910390208054905014156107cf577fffffffffffffffffffffffffffffffffffffffffffffffffffffffffffffffff90506109b0565b60006001856040516107e19190611695565b9081526020016040518091039020600180876040516108009190611695565b908152602001604051809103902080549050038154811061081d57fe5b9060005260206000200154905060028460405161083a9190611667565b602060405180830381855afa158015610857573d6000803e3d6000fd5b5050506040513d601f19601f8201168201806040525061087a91908101906111cd565b60026000838154811061088957fe5b90600052602060002090600302016000016000016040516108aa919061167e565b602060405180830381855afa1580156108c7573d6000803e3d6000fd5b5050506040513d601f19601f820116820180604052506108ea91908101906111cd565b14156109aa576002846040516109009190611667565b602060405180830381855afa15801561091d573d6000803e3d6000fd5b5050506040513d601f19601f8201168201806040525061094091908101906111cd565b6002846040516109509190611667565b602060405180830381855afa15801561096d573d6000803e3d6000fd5b5050506040513d601f19601f8201168201806040525061099091908101906111cd565b14156109a05760009150506109b0565b60019150506109b0565b60009150505b9392505050565b6109bf610fd9565b6109ca848385610c9d565b9050600081908060018154018082558091505090600182039060005260206000209060030201600090919290919091506000820151816000016000820151816000019080519060200190610a1f929190610ff9565b506020820151816001019080519060200190610a3c929190610ff9565b5050506020820151816002019080519060200190610a5b929190610ff9565b5050505060006001600080549050039050600186604051610a7c9190611695565b908152602001604051809103902081908060018154018082558091505090600182039060005260206000200160009091929091909150555080600387604051610ac59190611695565b908152602001604051809103902081905550505050505050565b600080600283604051610af29190611695565b9081526020016040518091039020549050610b0d8482610ce3565b15610b1c576001915050610b41565b7fffffffffffffffffffffffffffffffffffffffffffffffffffffffffffffffff9150505b92915050565b6000610b568787878787610d3f565b73ffffffffffffffffffffffffffffffffffffffff16610b7583610d61565b73ffffffffffffffffffffffffffffffffffffffff161490509695505050505050565b610ba0610fd9565b610bab848385610c9d565b9050600081908060018154018082558091505090600182039060005260206000209060030201600090919290919091506000820151816000016000820151816000019080519060200190610c00929190610ff9565b506020820151816001019080519060200190610c1d929190610ff9565b5050506020820151816002019080519060200190610c3c929190610ff9565b5050505060006001600080549050039050600186604051610c5d9190611695565b9081526020016040518091039020819080600181540180825580915050906001820390600052602060002001600090919290919091505550505050505050565b610ca5610fd9565b610cad611079565b60405180604001604052808681526020018581525090506040518060400160405280828152602001848152509150509392505050565b600081600284604051610cf69190611667565b602060405180830381855afa158015610d13573d6000803e3d6000fd5b5050506040513d601f19601f82011682018060405250610d3691908101906111cd565b14905092915050565b6000610d56610d5087878787610d8c565b83610eb1565b905095945050505050565b60006060610d6e83610f7b565b90506000818051906020012090508060005260005192505050919050565b600080600186604051610d9f9190611695565b9081526020016040518091039020805490501415610e31576002858585604051602001610dce939291906116ac565b604051602081830303815290604052604051610dea9190611667565b602060405180830381855afa158015610e07573d6000803e3d6000fd5b5050506040513d601f19601f82011682018060405250610e2a91908101906111cd565b9050610ea9565b600285858585604051602001610e4a94939291906116dd565b604051602081830303815290604052604051610e669190611667565b602060405180830381855afa158015610e83573d6000803e3d6000fd5b5050506040513d601f19601f82011682018060405250610ea691908101906111cd565b90505b949350505050565b6000806000806041855114610ecc5760009350505050610f75565b6020850151925060408501519150606085015160001a9050601b8160ff161015610ef757601b810190505b601b8160ff1614158015610f0f5750601c8160ff1614155b15610f205760009350505050610f75565b60018682858560405160008152602001604052604051610f439493929190611758565b6020604051602081039080840390855afa158015610f65573d6000803e3d6000fd5b5050506020604051035193505050505b92915050565b606060008060218401519150604184015190508181604051602001610fa192919061163b565b60405160208183030381529060405292505050919050565b6040518060400160405280610fcc611093565b8152602001606081525090565b6040518060400160405280610fec611093565b8152602001606081525090565b828054600181600116156101000203166002900490600052602060002090601f016020900481019282601f1061103a57805160ff1916838001178555611068565b82800160010185558215611068579182015b8281111561106757825182559160200191906001019061104c565b5b50905061107591906110ad565b5090565b604051806040016040528060608152602001606081525090565b604051806040016040528060608152602001606081525090565b6110cf91905b808211156110cb5760008160009055506001016110b3565b5090565b90565b6000813590506110e181611938565b92915050565b6000815190506110f681611938565b92915050565b600082601f83011261110d57600080fd5b813561112061111b826117ca565b61179d565b9150808252602083016020830185838301111561113c57600080fd5b6111478382846118db565b50505092915050565b600082601f83011261116157600080fd5b813561117461116f826117f6565b61179d565b9150808252602083016020830185838301111561119057600080fd5b61119b8382846118db565b50505092915050565b6000602082840312156111b657600080fd5b60006111c4848285016110d2565b91505092915050565b6000602082840312156111df57600080fd5b60006111ed848285016110e7565b91505092915050565b60006020828403121561120857600080fd5b600082013567ffffffffffffffff81111561122257600080fd5b61122e84828501611150565b91505092915050565b60008060008060008060008060006101208a8c03121561125657600080fd5b60008a013567ffffffffffffffff81111561127057600080fd5b61127c8c828d01611150565b99505060208a013567ffffffffffffffff81111561129957600080fd5b6112a58c828d01611150565b98505060406112b68c828d016110d2565b97505060608a013567ffffffffffffffff8111156112d357600080fd5b6112df8c828d01611150565b96505060808a013567ffffffffffffffff8111156112fc57600080fd5b6113088c828d01611150565b95505060a08a013567ffffffffffffffff81111561132557600080fd5b6113318c828d01611150565b94505060c08a013567ffffffffffffffff81111561134e57600080fd5b61135a8c828d01611150565b93505060e08a013567ffffffffffffffff81111561137757600080fd5b6113838c828d016110fc565b9250506101008a013567ffffffffffffffff8111156113a157600080fd5b6113ad8c828d016110fc565b9150509295985092959850929598565b60006113c983836115e8565b905092915050565b60006113dc82611847565b6113e68185611880565b9350836020820285016113f885611822565b8060005b85811015611434578484038952815161141585826113bd565b945061142083611873565b925060208a019950506001810190506113fc565b50829750879550505050505092915050565b61144f816118b8565b82525050565b61145e816118c4565b82525050565b611475611470826118c4565b61191d565b82525050565b600061148682611852565b6114908185611891565b93506114a08185602086016118ea565b80840191505092915050565b6000815460018116600081146114c957600181146114ee57611532565b607f60028304166114da8187611891565b955060ff1983168652808601935050611532565b600282046114fc8187611891565b955061150785611832565b60005b828110156115295781548189015260018201915060208101905061150a565b82880195505050505b505092915050565b600061154582611868565b61154f81856118ad565b935061155f8185602086016118ea565b80840191505092915050565b60006115768261185d565b611580818561189c565b93506115908185602086016118ea565b61159981611927565b840191505092915050565b600060408301600083015184820360008601526115c1828261156b565b915050602083015184820360208601526115db828261156b565b9150508091505092915050565b6000604083016000830151848203600086015261160582826115a4565b9150506020830151848203602086015261161f828261156b565b9150508091505092915050565b611635816118ce565b82525050565b60006116478285611464565b6020820191506116578284611464565b6020820191508190509392505050565b6000611673828461147b565b915081905092915050565b600061168a82846114ac565b915081905092915050565b60006116a1828461153a565b915081905092915050565b60006116b8828661153a565b91506116c4828561153a565b91506116d0828461153a565b9150819050949350505050565b60006116e9828761153a565b91506116f5828661153a565b9150611701828561153a565b915061170d828461153a565b915081905095945050505050565b6000602082019050818103600083015261173581846113d1565b905092915050565b60006020820190506117526000830184611446565b92915050565b600060808201905061176d6000830187611455565b61177a602083018661162c565b6117876040830185611455565b6117946060830184611455565b95945050505050565b6000604051905081810181811067ffffffffffffffff821117156117c057600080fd5b8060405250919050565b600067ffffffffffffffff8211156117e157600080fd5b601f19601f8301169050602081019050919050565b600067ffffffffffffffff82111561180d57600080fd5b601f19601f8301169050602081019050919050565b6000819050602082019050919050565b60008190508160005260206000209050919050565b600081519050919050565b600081519050919050565b600081519050919050565b600081519050919050565b6000602082019050919050565b600082825260208201905092915050565b600081905092915050565b600082825260208201905092915050565b600081905092915050565b60008115159050919050565b6000819050919050565b600060ff82169050919050565b82818337600083830152505050565b60005b838110156119085780820151818401526020810190506118ed565b83811115611917576000848401525b50505050565b6000819050919050565b6000601f19601f8301169050919050565b611941816118c4565b811461194c57600080fd5b5056fea365627a7a72315820c91929fe672623e691bea0fce6933acf34458e10470f63b4acc64b8c2f5d854d6c6578706572696d656e74616cf564736f6c63430005100040",
  "source": "pragma solidity >= 0.5.0 <= 0.7.4;\r\npragma experimental ABIEncoderV2;\r\n\r\ncontract AnchorContract {\r\n\r\n    // error codes\r\n    uint constant statusOK = 200;\r\n    uint constant statusHashLinkOutOfSync = 100;\r\n    uint constant statusCannotUpdateReadOnlyAnchor = 101;\r\n    uint constant statusHashOfPublicKeyDoesntMatchControlString = 102;\r\n    uint constant statusSignatureCheckFailed = 103;\r\n\r\n    event InvokeStatus(uint indexed statusCode);\r\n\r\n    struct AnchorHash {\r\n        string newHashLinkSSI;\r\n        string lastHashLinkSSI;\r\n    }\r\n\r\n    struct AnchorValue {\r\n        AnchorHash hash;\r\n        string ZKPValue;\r\n    }\r\n\r\n    // store all anchors\r\n    AnchorValue[] anchorStorage;\r\n    //keep a mapping between anchor(keySSI) and it's versions\r\n    mapping (string => uint[]) anchorVersions;\r\n\r\n    //mapping between anchorID and controlString.\r\n    mapping (string => bytes32) anchorControlStrings;\r\n\r\n    //mapping for read only anchors\r\n    mapping (string => uint) readOnlyAnchorVersions;\r\n\r\n    constructor() public {\r\n\r\n\r\n    }\r\n\r\n\r\n    // public function\r\n    function addAnchor(string memory anchorID, string memory keySSIType, bytes32 controlString,\r\n        string memory vn, string memory newHashLinkSSI, string memory ZKPValue, string memory lastHashLinkSSI,\r\n        bytes memory signature, bytes memory publicKey) public {\r\n\r\n            //check if thew anchorID can accept updates\r\n            if (isAnchorReadOnly(anchorID))\r\n            {\r\n                //anchor is readonly, reject updates\r\n                emit InvokeStatus(statusCannotUpdateReadOnlyAnchor);\r\n                return;\r\n            }\r\n\r\n            int validateAnchorContinuityResult = validateAnchorContinuity(anchorID, lastHashLinkSSI, newHashLinkSSI);\r\n            if (validateAnchorContinuityResult == 0)\r\n            {\r\n                //hash link are out of sync\r\n                emit InvokeStatus(statusHashLinkOutOfSync);\r\n                return;\r\n            }\r\n\r\n            if (validateAnchorContinuityResult == -1)\r\n            {\r\n                //anchor is new and we must check controlString\r\n                if (isEmptyBytes32(controlString))\r\n                {\r\n                    //allow only one record of this anchorID\r\n                    //this anchorID will not accept updates in the future\r\n                    createReadOnlyNewAnchorValueOnAddAnchor(anchorID, newHashLinkSSI,ZKPValue,lastHashLinkSSI);\r\n                    //all done, invoke ok status\r\n                    emit InvokeStatus(statusOK);\r\n                    return;\r\n                }\r\n                // add controlString to the mapping\r\n                anchorControlStrings[anchorID] = controlString;\r\n            }\r\n\r\n            //validate hash of the publicKey\r\n            if (validatePublicKeyHash(publicKey,anchorID) == -1)\r\n            {\r\n                emit InvokeStatus(statusHashOfPublicKeyDoesntMatchControlString);\r\n                return;\r\n            }\r\n\r\n            //validate signature\r\n            if (!validateSignature(anchorID, newHashLinkSSI,ZKPValue,lastHashLinkSSI, signature,publicKey))\r\n            {\r\n                emit InvokeStatus(statusSignatureCheckFailed);\r\n                return;\r\n            }\r\n\r\n            createNewAnchorValueOnAddAnchor(anchorID, newHashLinkSSI,ZKPValue,lastHashLinkSSI);\r\n            //all done, invoke ok status\r\n            emit InvokeStatus(statusOK);\r\n    }\r\n\r\n    function createNewAnchorValueOnAddAnchor(string memory anchorID, string memory newHashLinkSSI,\r\n        string memory ZKPValue, string memory lastHashLinkSSI) private\r\n    {\r\n        //create new anchor value\r\n        AnchorValue memory anchorValue = buildAnchorValue(newHashLinkSSI,lastHashLinkSSI,ZKPValue);\r\n        anchorStorage.push(anchorValue);\r\n        uint versionIndex = anchorStorage.length - 1;\r\n        //update number of versions available for that anchor\r\n        anchorVersions[anchorID].push(versionIndex);\r\n    }\r\n\r\n    function createReadOnlyNewAnchorValueOnAddAnchor(string memory anchorID, string memory newHashLinkSSI,\r\n        string memory ZKPValue, string memory lastHashLinkSSI) private\r\n    {\r\n        //for readonly anchor store the values in the same place as normal anchors\r\n        //getVersions will provide information the same way, regardless of the anchorID type\r\n\r\n        //create new anchor value\r\n        AnchorValue memory anchorValue = buildAnchorValue(newHashLinkSSI,lastHashLinkSSI,ZKPValue);\r\n        anchorStorage.push(anchorValue);\r\n        uint versionIndex = anchorStorage.length - 1;\r\n        //update number of versions available for that anchor\r\n        anchorVersions[anchorID].push(versionIndex);\r\n        // mark the anchorID as read only\r\n        readOnlyAnchorVersions[anchorID] = versionIndex;\r\n    }\r\n\r\n    function validatePublicKeyAndControlString(bytes memory publicKey,bytes32 controlString) private pure returns (bool)\r\n    {\r\n        return (sha256(publicKey) == controlString);\r\n    }\r\n\r\n\r\n    function validatePublicKeyHash(bytes memory publicKey, string memory anchorID) private view returns (int)\r\n    {\r\n        bytes32 controlString =  anchorControlStrings[anchorID];\r\n        if (validatePublicKeyAndControlString(publicKey,controlString))\r\n        {\r\n            //we have match. All is ok.\r\n            return 1;\r\n        }\r\n\r\n        //validation failed\r\n        return -1;\r\n    }\r\n\r\n    function recover(bytes32 hash, bytes memory signature) private pure returns (address)\r\n    {\r\n        bytes32 r;\r\n        bytes32 s;\r\n        uint8 v;\r\n\r\n        // Check the signature length\r\n        if (signature.length != 65) {\r\n            return (address(0));\r\n        }\r\n\r\n        // Divide the signature in r, s and v variables\r\n        // ecrecover takes the signature parameters, and the only way to get them\r\n        // currently is to use assembly.\r\n        // solium-disable-next-line security/no-inline-assembly\r\n        assembly {\r\n            r := mload(add(signature, 32))\r\n            s := mload(add(signature, 64))\r\n            v := byte(0, mload(add(signature, 96)))\r\n        }\r\n\r\n        // Version of signature should be 27 or 28, but 0 and 1 are also possible versions\r\n        if (v < 27) {\r\n            v += 27;\r\n        }\r\n\r\n        // If the version is correct return the signer address\r\n        if (v != 27 && v != 28) {\r\n            return (address(0));\r\n        } else {\r\n            // solium-disable-next-line arg-overflow\r\n            return ecrecover(hash, v, r, s);\r\n        }\r\n    }\r\n\r\n\r\n    function validateSignature(string memory anchorID,string memory newHashLinkSSI,string memory ZKPValue,\r\n        string memory lastHashLinkSSI, bytes memory signature, bytes memory publicKey) private view returns (bool)\r\n    {\r\n        return calculateAddress(publicKey) == getAddressFromHashAndSig(anchorID, newHashLinkSSI, ZKPValue, lastHashLinkSSI, signature);\r\n    }\r\n\r\n    // calculate the ethereum like address starting from the public key\r\n    function calculateAddress(bytes memory pub) private pure returns (address addr) {\r\n        // address is 65 bytes\r\n        // lose the first byte 0x04, use only the 64 bytes\r\n        // sha256 (64 bytes)\r\n        // get the 20 bytes\r\n        bytes memory pubk = get64(pub);\r\n\r\n        bytes32 hash = keccak256(pubk);\r\n        assembly {\r\n            mstore(0, hash)\r\n            addr := mload(0)\r\n        }\r\n    }\r\n\r\n    function get64(bytes memory pub) private pure returns (bytes memory)\r\n    {\r\n        //format 0x04bytes32bytes32\r\n        bytes32 first32;\r\n        bytes32 second32;\r\n        assembly {\r\n            //intentional 0x04bytes32 -> bytes32. We drop 0x04\r\n            first32 := mload(add(pub, 33))\r\n            second32 := mload(add(pub, 65))\r\n        }\r\n\r\n        return abi.encodePacked(first32,second32);\r\n    }\r\n\r\n    function getAddressFromHashAndSig(string memory anchorID,string memory newHashLinkSSI,string memory ZKPValue,\r\n        string memory lastHashLinkSSI, bytes memory signature) private view returns (address)\r\n    {\r\n        //return the public key derivation\r\n        return recover(getHashToBeChecked(anchorID,newHashLinkSSI,ZKPValue,lastHashLinkSSI), signature);\r\n    }\r\n\r\n    function getHashToBeChecked(string memory anchorID,string memory newHashLinkSSI,string memory ZKPValue,\r\n        string memory lastHashLinkSSI) private view returns (bytes32)\r\n    {\r\n        //use abi.encodePacked to not pad the inputs\r\n        if (anchorVersions[anchorID].length == 0)\r\n        {\r\n            return sha256(abi.encodePacked(anchorID,newHashLinkSSI,ZKPValue));\r\n        }\r\n            return sha256(abi.encodePacked(anchorID,newHashLinkSSI,ZKPValue,lastHashLinkSSI));\r\n    }\r\n\r\n    function isAnchorReadOnly(string memory anchorID) private view returns(bool)\r\n    {\r\n        if (anchorVersions[anchorID].length != 0)\r\n        {\r\n            if (anchorVersions[anchorID][0] == readOnlyAnchorVersions[anchorID])\r\n            {\r\n                //anchor is read only\r\n                return true;\r\n            }\r\n        }\r\n\r\n        //anchor is not read only\r\n        return false;\r\n    }\r\n\r\n    function validateAnchorContinuity(string memory anchorID, string memory lastHashLinkSSI, string memory newHashLinkSSI) private view returns (int)\r\n    {\r\n        if (anchorVersions[anchorID].length == 0)\r\n        {\r\n            //first anchor to be added\r\n            return -1;\r\n        }\r\n        uint index = anchorVersions[anchorID][anchorVersions[anchorID].length-1];\r\n\r\n        //can import StringUtils contract or compare hashes\r\n        //hash compare seems faster\r\n        if (sha256(bytes(anchorStorage[index].hash.newHashLinkSSI)) == sha256(bytes(lastHashLinkSSI)))\r\n        {\r\n            //ensure we dont get double hashLinkSSI\r\n            if (sha256(bytes(newHashLinkSSI)) == sha256(bytes(lastHashLinkSSI)))\r\n            {\r\n                //raise out of sync. the hashlinks should be different, except 1st anchor\r\n                return 0;\r\n            }\r\n            //last hash link from contract is a match with the one passed\r\n            return 1;\r\n        }\r\n        //hash link is out of sync. the last hash link stored doesnt match with the last hash link passed\r\n        return 0;\r\n    }\r\n\r\n    function buildAnchorValue(string memory newHashLinkSSI, string memory lastHashLinkSSI, string memory ZKPValue) private pure returns (AnchorValue memory){\r\n        AnchorHash memory anchorHash = AnchorHash(newHashLinkSSI, lastHashLinkSSI);\r\n        return AnchorValue(anchorHash, ZKPValue);\r\n    }\r\n\r\n    function copyAnchorValue(AnchorValue memory anchorValue) private pure returns (AnchorValue memory){\r\n        return buildAnchorValue(anchorValue.hash.newHashLinkSSI, anchorValue.hash.lastHashLinkSSI, anchorValue.ZKPValue);\r\n    }\r\n\r\n    // public function\r\n    function getAnchorVersions(string memory anchor) public view returns (AnchorValue[] memory) {\r\n        if (anchorVersions[anchor].length == 0)\r\n        {\r\n            return new AnchorValue[](0);\r\n        }\r\n        uint[] memory indexList = anchorVersions[anchor];\r\n        AnchorValue[] memory result = new AnchorValue[] (indexList.length);\r\n        for (uint i=0;i<indexList.length;i++){\r\n            result[i] = copyAnchorValue(anchorStorage[indexList[i]]);\r\n        }\r\n\r\n        return result;\r\n\r\n    }\r\n\r\n\r\n    //utility functions\r\n\r\n    function isEmptyBytes32(bytes32 data) public pure returns (bool)\r\n    {\r\n        return data[0] == 0;\r\n    }\r\n\r\n\r\n\r\n\r\n\r\n}",
  "sourcePath": "D:/Pharma/WD/epi-workspace/ethereum-anchoring/SmartContract/contracts/AnchorContract.sol",
  "compiler": {
    "name": "solc",
    "version": "0.5.16+commit.9c3226ce.Emscripten.clang"
  },
  "schemaVersion": "3.3.1",
  "updatedAt": "2020-12-07T09:02:22.698Z",
  "networkType": "ethereum",
  "devdoc": {
    "methods": {}
  },
  "userdoc": {
    "methods": {}
  }
}